:020000040000FA
:1000000058080020D5000000F5000000F7000000AF
:1000100000000000000000000000000000000000E0
:10002000000000000000000000000000F9000000D7
:100030000000000000000000FB000000FD000000C8
:10004000FF000000FF000000FF000000FF000000B4
:10005000FF000000FF000000FF000000FF000000A4
:10006000FF0000000918000065180000FF000000F4
:10007000E918000015190000FF000000FF00000053
:10008000FF000000FF000000FF000000E90B00007F
:10009000FF000000FF000000FF000000FF00000064
:1000A000FF000000FF000000FF000000FF00000054
:1000B000FF000000FF000000FF000000FF00000044
:1000C0000348854600F0CAF900480047A52900000A
:1000D000580800200A480B4901600B4901600B4990
:1000E00001600B4A0B491160002101600A488047FA
:1000F0000A480047FEE7FEE7FEE7FEE7FEE7FEE709
:1001000000010050590000001600000088000000A7
:1001100024000050A55A0000F5160000C1000000A0
:1001200030B50B46014600202022012409E00D468F
:10013000D5409D4205D31D469540491B2546954017
:1001400040191546521E002DF1DC30BD03460B430D
:100150009B070AD102E008C9121F08C0042AFAD27C
:1001600003E00B780370491C401C521EF9D2704703
:10017000F0B51FB48CB00F9A0D990D985140400006
:10018000C90F4008C9070D90002450000A94400888
:100190000B910F900D990C9861406040084304D07A
:1001A0000F990E986140084303D10020014611B019
:1001B000F0BD0D980D9901230903090B1B05194387
:1001C00040000D91440D0F990F980903090B400051
:1001D0001943400D00220F91201819491346401869
:1001E000144609900326032C00DA2646A51B0EAF01
:1001F00008960AE070000CA9085A6900795A484329
:10020000002182184B41761E6D1C08988542F1DD55
:10021000600004A90A521804120C02431B0C641C4F
:10022000082CDFDB099A0B990A9802920191009041
:10023000059B049A0799069800F0B2F8B7E700000A
:100240000DFCFFFF10B500221146962300F051F877
:1002500010BD40004008C10D40020122400AD205F5
:1002600080187F2901DA00207047962903DC962246
:10027000511AC8407047963988407047C20FD2075C
:100280004000400801D101467047C10D07234002DC
:10029000DB01400ACB18C10840071B051343194373
:1002A000704770B5CE0FF6074D006D080023044669
:1002B000294659405840084307D00722280D2903F2
:1002C000D201090B801A002801DC002070BDC90092
:1002D000620F0A439219C005E100101800F001F8FE
:1002E00070BD002904DA401C490001D140084000DB
:1002F000704770B40024050C05D11024000402D10D
:10030000002922D01124050E01D108340002050F66
:1003100001D1241D0001850F01D1A41C80000028FB
:1003200001DB641C4000002908D020252E1B0D464F
:10033000F540A14000D001210D4328431B1B0106BD
:10034000DB1D000A002B02DA002070BC7047DB05C1
:10035000181880180029F8DA401C4900F5D170BC43
:10036000400840007047F0B51FB4044602981F468D
:100370000E4600253946401BA9410DDA0122A4187A
:1003800031466941029A0E463946901879416940D2
:10039000084301D1640864002046314605B0F0BD31
:1003A000F0B51FB4002782B005460C46002903D0E3
:1003B000204601F030FB03E0284601F02CFB203002
:1003C000064602462146284600F05AF8059A0D4690
:1003D000049B0446114318437940084303D1204647
:1003E000294607B0F0BD00230599049859405840AC
:1003F000084318D04020821B0599049800F051F85A
:100400000746019132460599049800F039F8002317
:1004100059405840084300D00120C117019A384381
:10042000114304430D430E986905831BE00A0843FA
:100430000A3300276605E90A002B02DA002001468C
:10044000CFE700221B05801859410C9A0D9B80189C
:10045000594133463A46FFF786FFC2E7064C01256D
:10046000064E05E02046E36807C82B439847103442
:10047000B442F7D3FFF728FE1C3700003C370000DA
:1004800010B5202A04DB0023203A0146914006E003
:100490000346934091402024A21AD04001431846BD
:1004A00010BD10B5202A04DB0846203AD0400021B8
:1004B00010BDD04020239C1A0B46A3401843D140C6
:1004C00010BD70B58C180578401C6B075B0F01D10F
:1004D0000378401C2A1106D10278401C03E00678FC
:1004E0000E70401C491C5B1EF9D12B0706D400235B
:1004F00001E00B70491C521EFBD50AE00378401C3A
:10050000CB1A921C03E01D780D705B1C491C521E17
:10051000F9D5A142D7D3002070BD10B5052000F059
:10052000D5FA10BDF0B585B00446002500F0DEF820
:10053000942000F0B5F8002000F0B2F800F0D6F8F2
:10054000952000F0ADF8012000F0F8F800BF0EE0B3
:1005500000F06AF825494855802D03D1012000F0AC
:1005600083F802E0002000F07FF8681CC5B2802DFF
:10057000EEDD00F0CDF81D48C0781D490860084642
:100580000068000208601948807809680843184923
:10059000086008460068000208601448407809684E
:1005A00008431349086008460068000208600F48C5
:1005B0000078096808430E49086008460068FFF79C
:1005C00041FE0746FFF75AFE0391029009A00CC8AE
:1005D0000298FFF7CDFD01910090FFF762FE0646FD
:1005E0003046FFF736FE206005B0F0BDD005002094
:1005F00038010020666666666666F63F10B5002420
:100600000120084948610861FFF787FF05484069F4
:100610002043C4B2FFF781FF002002490861204651
:1006200010BD00008042005070B5002401200D492B
:100630004861002511E06006040E012009490861A7
:10064000FFF76BFF074840692043C4B2002005490B
:100650000861FFF762FF681CC5B2082DEBDB20467E
:1006600070BD00008042005010B50446E007C00F86
:1006700003D001200949486102E000200749486190
:10068000012006490861FFF748FF0020034908617F
:1006900001204861FFF741FF10BD0000804200507B
:1006A00070B50446002519E08020044203D00120E3
:1006B0000D49486102E000200B494861FFF72DFF1A
:1006C000012009490861FFF728FF00200649086159
:1006D000FFF723FF6006040E681CC5B2082DE3DB9C
:1006E000FFF78CFF70BD00008042005010B5012064
:1006F000064948610861FFF710FF0020034948617F
:10070000FFF70BFF00200149086110BD8042005037
:1007100010B500200849486101200861FFF7FDFE7F
:10072000012005494861FFF7F8FE002002490861F1
:10073000FFF7F3FE10BD00008042005070B5054683
:10074000002405E07D20C00000F0C0F9601C84B2E8
:10075000AC42F7DB70BD000008B5002000900B48EC
:1007600000680B490968401AFF21F53188420CD313
:1007700006480068064908606846FFF7D3FE0098FF
:10078000000C044948840098888408BD14010020A6
:100790004401002060010020064AC10F8900525820
:1007A000C306DB0E012199400A43024BC10F8900A9
:1007B0005A50704708020050FEB50020029019A060
:1007C000006800901848046A0013044201D0002019
:1007D000FEBD0120C004044201D0144D00E0144DC0
:1007E00001204004044201D02846F1E703208003A1
:1007F0002040800B69460A5C0192E005C00D861C12
:100800001F2040022040400A871C019A7A4311466B
:10081000AA0872431046FFF783FC800002900298FA
:10082000D6E70000010202040002005000805101DE
:10083000001BB700FEB50020029019A000680090D0
:100840001848046A0013044201D00020FEBD0120B4
:10085000C004044201D0144D00E0144D01204004B6
:10086000044201D02846F1E7032080032040800B9A
:1008700069460A5C0192E005C00D861C1F204002FB
:100880002040400A871C019A7A431146AA08724305
:100890001046FFF745FC800002900298D6E7000062
:1008A000010202040002005000805101001BB70049
:1008B000F0B5002300240025C600360F0FD0124EDD
:1008C0004700BF0FBF00F4192368C600360FC701E9
:1008D000FF0EBE401F46B7430F433B4623608603CF
:1008E000360E10D0084E08360703BF0FBF00F519AB
:1008F0002B688603360EF6438705FF0EBE401E406A
:10090000164333462B60F0BD10020050064904E048
:100910000A46491E002A00DC04E0044AD26802406C
:100920008242F5D100BF704790D003000002005012
:1009300010B50021084602F09FF90446082C01D0AA
:10094000002010BD0120FCE71A49097800292FD0AA
:1009500019494978184A92788918174AD27889181B
:10096000154A12798918144A52798918124A9279CB
:100970008918114AD27989180F4A1278511A491CDC
:10098000C8B20D49097A81420DD10B498978090213
:10099000094AD2788918094A918311468A8B098AB3
:1009A0005118064A91830021054A1160014A1170CD
:1009B000704700000C010020D004002060010020DE
:1009C0000801002000B589B006A80EA10EC90EC00E
:1009D00003A80FA10EC90EC0684610A10EC90EC013
:1009E00008224B21C9010020034602F083FA50205F
:1009F00002F0C4FA092203A90B4800F0F3FF09B082
:100A000000BD0000FF01790000000000860000002A
:100A1000FF019907D00000008F000000FF01880748
:100A2000D0000000A0000000000015400EB5684690
:100A30000AA10EC90EC00C4800680C490968401A8A
:100A4000E121C900884208D30748006807490860C7
:100A500009226946064800F0C5FF0EBDFF01860069
:100A6000000000007900000014010020180100209F
:100A70000000154010B50C4909680C4A1268891A23
:100A80007D22D20091420ED307490968074A1160BE
:100A900000F08CFA002806DD0112054AD183C1B2AC
:100AA00011841146088410BD140100202401002087
:100AB0006001002010B5044600BF7D20C00000F09A
:100AC00005F8641E002CF8D110BD00000849096823
:100AD0004143084A5161002191610521116100BF24
:100AE00004490969012212041142F9D0704700003B
:100AF0000001002000E000E072B6704762B6704767
:100B00000348006840084000014908607047000041
:100B100000C0005000BF22210C4AD160114648603D
:100B200001211161BFF36F8F00BF00BF0749096941
:100B30000029FBD1054909684022114203D0402118
:100B4000024A116000E000BF7047000000C0005082
:100B5000034800680121084301490860704700000C
:100B600000C00050014600BF0020084AD060104677
:100B7000416001201061BFF36F8F00BF00BF0348C9
:100B800000690028FBD101488068704700C0005010
:100B900000BF2122084BDA601A46506091600122A2
:100BA0001A61BFF36F8F00BF00BF034A1269002AAA
:100BB000FBD100BF7047000000C0005070B500239B
:100BC0000EE001249C400C4209D004685E0003251D
:100BD000B540AC435E001546B5402C4304605B1C39
:100BE000082BEED370BD704710B50B48C468406940
:100BF000C007C00F01214840484003D0064800F01C
:100C00000FF807E005480068002803D02046034994
:100C10000968884710BD0000000012403401002020
:100C200041690122114341617047000010B5012262
:100C300080210648FFF7C2FF03223021034880309D
:100C4000FFF7BCFF01200249C86110BD8040005081
:100C50004042005070B5FFF77BFF1D494869FFF720
:100C600081FF04461A494969081DFFF77BFF0546C5
:100C7000FFF746FF681C0AD1164908850846008D13
:100C8000154908701348008D491C087005E011498A
:100C90000D8511490D70491C0D70601C0FD1FE208F
:100CA0000C49C8840846C08C0B49891E0870094845
:100CB000C08C491C08700748C08CC0B270BD054983
:100CC000CC840549891E0C70491C0C70E0B2F5E714
:100CD00000C00050600100204E010020C206D20E6C
:100CE00001219140014A11607047000000E100E0DD
:100CF000C206D20E01219140014A116070470000E6
:100D000000E100E010B5002819DA1A4A03071B0FAA
:100D1000083B9B089B00D2588307DC0EFF23A340AF
:100D20009A438B071B0E8407E40EA3401A43114B12
:100D30000407240F083CA408A4001A5118E00E4A26
:100D400003231B02D21883089B00D3588207D40EBA
:100D5000FF22A24093438A07120E8407E40EA240AA
:100D60001343054A0324240212198408A4001351D2
:100D700010BD00001CED00E000E100E010B500280F
:100D800019DA1A4A03071B0F083B9B089B00D2582D
:100D90008307DC0EFF23A3409A438B071B0E8407B7
:100DA000E40EA3401A43114B0407240F083CA40887
:100DB000A4001A5118E00E4A03231B02D21883081C
:100DC0009B00D3588207D40EFF22A24093438A0788
:100DD000120E8407E40EA2401343054A03242402A2
:100DE00012198408A400135110BD00001CED00E08E
:100DF00000E100E010B5002819DA1A4A03071B0FBA
:100E0000083B9B089B00D2588307DC0EFF23A340BE
:100E10009A438B071B0E8407E40EA3401A43114B21
:100E20000407240F083CA408A4001A5118E00E4A35
:100E300003231B02D21883089B00D3588207D40EC9
:100E4000FF22A24093438A07120E8407E40EA240B9
:100E50001343054A0324240212198408A4001351E1
:100E600010BD00001CED00E000E100E00278FF2A68
:100E700019D14278BB2A02D0FF2A13D105E0002203
:100E8000094B1A60094B1A600CE0094AD28C094BD5
:100E90001A7000225A709A70DA701A710522064B85
:100EA0001A7000BF00BF7047280100201401002005
:100EB00060010020900500202C01002030B50C4678
:100EC0000021002203781D4DED8CAB4234D14378D4
:100ED000032B1DD0102B2ED18178C3781A02FF234B
:100EE0001B021A4003799B189AB24B00134DEA5229
:100EF0002B46DB8C124D2B7010236B702B46997098
:100F00000023EB7001232B7105230E4D2B7012E093
:100F100081784B00094DEA5A2B46DB8C084D2B702B
:100F200003236B702B4699701312EB702A71052303
:100F3000044D2B7000BF00BF30BD000060010020D9
:100F4000900500202C01002000B50021262001F092
:100F500093FE024908700846007800BD2E0100206B
:100F600070B5002600241AE000BF0F48806B0028EF
:100F7000FBD03220FFF7AAFD0B48806BC5B270068C
:100F8000060E012D07D10120064300BF0648806BE5
:100F90000028FBD101E0FE200640601CC4B2082CF2
:100FA000E2DB304670BD000000420050FEB500207C
:100FB0001E4988631420FFF77DFD01201B498863CB
:100FC0003220FFF783FD72B61848806B002829D1C4
:100FD00000BF1648806B0028FBD000BF1348806B11
:100FE0000028FBD1FFF7BCFF0446FFF7B9FF054619
:100FF000FFF7B6FF0646FFF7B3FF0746FFF7B0FF60
:10100000019062B661198919C9190198814209D103
:101010000094009C200200900098801980B20090FB
:101020000098FEBD62B60020FBE7000000420050C1
:1010300000B500F023FD0021862001F01DFE0121F6
:10104000872001F019FE6421892001F015FE052199
:101050008A2001F011FEEA218B2001F00DFEEA2129
:101060008C2001F009FEEA218D2001F005FE00F040
:10107000D3F80721ED2001F0FFFD0021F92001F058
:10108000FBFD0021FA2001F0F7FD00BD10B5164868
:10109000006804210843144908601020FFF736FC5B
:1010A0000720114908610846006AC90108430E4932
:1010B000086208460068012108430B4908600B4894
:1010C00008620520FFF722FC1A200749086108483A
:1010D00088600848486100F0DBFA03200521090711
:1010E000C8638002486310BD000200501742000030
:1010F000180003000020020105200007806802217B
:101100000843052109078860704700000A49020E5C
:1011100092008A58012181400A430749030E9B002F
:10112000CA50020E92008A58012181408A43024926
:10113000030E9B00CA5070470800005006E059207B
:101140000549086016200860882008600248006889
:101150000128F4D170470000000100501CB504467E
:10116000FFF7ECFFFFF7F4FC11494869FFF7FAFCC1
:1011700000900F494969081DFFF7F4FC01900C49E4
:101180004869FFF7C7FC0A4948692146FFF700FD97
:10119000074A01995269101DFFF7FAFCFFF7B0FCEE
:1011A000FFF7AAFF00BF00200249086000BF1CBD76
:1011B00000C00050000100501CB50446FFF7BEFF00
:1011C000FFF7C6FC12494869FFF7CCFC00901049B4
:1011D0004969081DFFF7C6FC019001940C49486954
:1011E000FFF798FC0A4A00995069FFF7D1FC084ABA
:1011F00001995269101DFFF7CBFCFFF781FCFFF747
:101200007BFF00BF00200349086000BF1CBD000039
:1012100000C000500001005010B5D448008DC4B289
:10122000AC219C2001F028FD40219D2001F024FDEF
:101230009C21A02001F020FD0021A12001F01CFD37
:10124000D121A22001F018FDB721A32001F014FD47
:101250000021A42001F010FD5321A52001F00CFD78
:10126000AC21B02001F008FD8C21B22001F004FD7A
:101270000221B32001F000FD0821B42001F0FCFCA4
:101280002A21B52001F0F8FC2D21B62001F0F4FC54
:10129000D421B72001F0F0FC0021B82001F0ECFCD3
:1012A0000021B92001F0E8FC0021BA2001F0E4FCA3
:1012B0000021BB2001F0E0FC0021BC2001F0DCFC9F
:1012C0000021BD2001F0D8FC0021BE2001F0D4FC9B
:1012D0000021BF2001F0D0FC0021C02001F0CCFC97
:1012E0000021C12001F0C8FC0021C22001F0C4FC93
:1012F000FF21C32001F0C0FCFF21C42001F0BCFC91
:10130000FF21C52001F0B8FCFF21C62001F0B4FC8C
:101310000021D62001F0B0FC9D21EE2001F0ACFCB4
:101320004921EF2001F0A8FC2C21F02001F0A4FCC1
:101330002B21F12001F0A0FC5021F22001F09CFCB7
:10134000234600F07FFB140B1825323F4C5966737F
:10135000808D9AA7B4C1CEDBE8F7F5175321F520AD
:1013600001F08AFC4B21F62001F086FC0021F720D9
:1013700001F082FCF8E05321F52001F07DFC4D21C5
:10138000F62001F079FC8021F72001F075FCEBE0FC
:101390005321F52001F070FC5021F62001F06CFC87
:1013A0000021F72001F068FCDEE05321F52001F078
:1013B00063FC5221F62001F05FFC8021F72001F050
:1013C0005BFCD1E05321F52001F056FC5521F620BD
:1013D00001F052FC0021F72001F04EFCC4E0532143
:1013E000F52001F049FC5721F62001F045FC802151
:1013F000F72001F041FCB7E05321F52001F03CFC5F
:101400005A21F62001F038FC0021F72001F034FCCD
:10141000AAE05321F52001F02FFC5C21F62001F019
:101420002BFC8021F72001F027FC9DE05321F520C3
:1014300001F022FC5F21F62001F01EFC0021F720C4
:1014400001F01AFC90E05321F52001F015FC612118
:10145000F62001F011FC8021F72001F00DFC83E063
:101460005321F52001F008FC3221F62001F004FCA4
:101470000021F72001F000FC76E05321F52001F077
:10148000FBFB3421F62001F0F7FB8021F72001F06F
:10149000F3FB69E05321F52001F0EEFB3721F62044
:1014A00001F0EAFB0021F72001F0E6FB5CE05321AC
:1014B000F52001F0E1FB3921F62001F0DDFB802170
:1014C000F72001F0D9FB4FE05321F52001F0D4FBC8
:1014D0003C21F62001F0D0FB0021F72001F0CCFBED
:1014E00042E05321F52001F0C7FB3E21F62001F038
:1014F000C3FB8021F72001F0BFFB35E05321F5202D
:1015000001F0BAFB4121F62001F0B6FB0021F720E3
:1015100001F0B2FB28E05321F52001F0ADFB43219F
:10152000F62001F0A9FB8021F72001F0A5FB1BE0CC
:101530000DE0FFE75321F52001F09EFB4621F62048
:1015400001F09AFB0021F72001F096FB0CE05321FB
:10155000F52001F091FB4821F62001F08DFB802160
:10156000F72001F089FB00BF00BF10BD6001002023
:1015700010B50446FFF7DCF901283ED1FFF7E4FC83
:101580001E49C8871E4801F01BFB1E49087008460B
:101590000078002818DD1A4800781849C98C88425C
:1015A00005D1184801781648FFF788FC08E0144870
:1015B0000078FF2804D1134801781148FFF756FC42
:1015C00000201049087018E00F480078002814DD4A
:1015D0000D4800783C2810DA0848C08F1E2808DA29
:1015E00009480178094801F08DFB00200649087080
:1015F00003E0054800780449087010BD6001002030
:10160000500500202D0100202C0100209005002015
:1016100010B51D48C08C1D49087008460078491C4B
:101620000978884211D01848C08CFF2808DA16487B
:10163000C08C002804DD1449C98CC8B2FFF78EFDA8
:10164000124800781149491C08700F48008D0F4955
:10165000891C087008460078491C0978884212D015
:101660000948008D142808DA0748008D002804DB9B
:101670000549098DC8B2FFF79FFD0448801C00781A
:101680000249C91C087010BD600100204C010020F7
:1016900070B51248006945076D0FFFF7CBF8104988
:1016A0000860022D03D0A8000E490C5801E00C4838
:1016B00004680A4880690007000F461C314620462E
:1016C000FEF72EFD084908600849074800684A10DF
:1016D0008018FEF725FD0649086070BD0002005025
:1016E00004010020FC360000FC00002040420F00F6
:1016F0000001002070470168012252071143016078
:101700007047000030B589B004462022194901A86D
:10171000FEF71CFD1848844206D11848406907218D
:1017200009020840050A1AE013482030844206D115
:1017300012484069072109030840050B0FE01048D3
:10174000844206D10D484069072109040840050C70
:1017500005E00A484069072109050840050D022DEA
:1017600003D10848006809B030BDA80001A9085895
:10177000F9E70000AC360000000001400002005014
:1017800000001140FC000020F7B582B004460D4671
:101790002046FFF7B7FF064600270020019070089B
:1017A0000499884201D202271BE00120800686426C
:1017B00003D307200190F6080EE001204006864280
:1017C00003D303200190B60806E0012000068642FC
:1017D00002D301200190760830460499FEF7A0FC60
:1017E000074601982843206067600198401C7843B1
:1017F00001463046FEF794FC05B0F0BD01680122B9
:10180000920711430160704710B500BF114880680E
:10181000C007C00F01281BD100BF0E49886000BF60
:101820000D480078002810D00C480068401C0B4977
:101830000860084600680A490988884208DB01F008
:1018400077F900200549086002E00020034908609C
:1018500010BD00002000014004000020080000200E
:101860000C00002000B500BF19488068C007C00FF9
:1018700001282CD100BF1649886000BF15480068B8
:10188000401C1449086008460068142806D300204C
:10189000086011480068401C0F4908600F48007834
:1018A000002811D00E480068401C0D490860084609
:1018B00000680849091D0988884208DB0120094998
:1018C000087001F045FB02E000200549086000BDFA
:1018D000000011401C010020140100200D01002017
:1018E000100100200C01002010B50948C069C00794
:1018F000C00F02D001F024F908E0054880690121F9
:1019000009070840000F01D001F022F910BD0000C6
:101910000000054000B50B48C069C007C00F0DD0DE
:1019200009490A4A1268881801F0DCFA0748006879
:10193000401C0649086001F015FB01E00148806980
:1019400000BD000000001540D00400200801002068
:10195000F0B585B004460D461E4801AF4EC84EC7CF
:10196000002000901C484069032109060840060E2B
:10197000002020630320E060A06818490840A060B0
:10198000012E04D1FEF718FFB10001AA5050002D1E
:101990001ED0B10001AA51586A0888182946FEF7DE
:1019A000BFFB801E00900E49009888420BD9B10001
:1019B00001AA5158EA0088182946FEF7B1FB000930
:1019C000801E606204E003210907009808436062FA
:1019D00005B0F0BDCC360000000200500FFFF0FF54
:1019E000FFFF000070B50346002510E0002406E06C
:1019F000641C01208007844201D3002070BD9869D7
:101A0000012636073042F3D0485D18606D1C9542C0
:101A1000ECD12846F2E72021020C01D0102110461B
:101A2000020A01D008391046020901D0091F1046E8
:101A3000820801D0891E1046420801D0881E7047D6
:101A4000081A704730B47446641E2578641CAB4293
:101A500000D21D46635D5B00E31830BC184702E00E
:101A600008C8121F08C1002AFAD170477047002029
:101A700001E001C1121F002AFBD1704700B500210F
:101A8000032001F0F9F80021042001F0F5F800BD71
:101A900010B50246002009E01478521C03125C4085
:101AA0006300054CE35A0402634098B20B464C1E97
:101AB000A1B2002BF0DC10BDAA340000F8B504463A
:101AC0000D460026207804283FD16078022806D0F1
:101AD000042812D005281AD006282DD122E008208B
:101AE0002070022060700020A0708920E07000202B
:101AF00020716071062028801EE0062020700420DE
:101B000060700020A070E0700420288014E006209F
:101B10002070052060700320A070E820E070042091
:101B2000288009E00620207060705520A070F02009
:101B3000E0700420288000BF00BF0027002F05D0E0
:101B4000384600F0E3FF064600E003263046F8BDC5
:101B500010B5002407480078012807D105489430C3
:101B60000068804700200349087000E006242046F2
:101B700010BD000044000020F0B585B004460D46BD
:101B8000002001902888052850D160780602A078AE
:101B90000643701C86B2E078000203902079039916
:101BA00008430390039801283DDB7D210901039838
:101BB000884238DA0294002028800120029C20709C
:101BC000029C601C02902888401C288003984007D3
:101BD000400F07D00398C117490F0918C910491CB5
:101BE000CFB205E00398C117490F091849050F0E38
:101BF000029807700298401C02902888401C288098
:101C000031460023039A029800F092FC009000985D
:101C1000002804D0009800F079FF019008E028889F
:101C2000C019288004E00320019001E00320019006
:101C3000019805B0F0BDF0B585B004460D46002012
:101C40000190288805284FD160780602A0780643C5
:101C5000701C86B2E0780002039020790399084353
:101C60000390039801283CDB7D21090103988842F9
:101C700037DA0294002028800220029C2070029C07
:101C8000601C02902888401C288003984007400F61
:101C900007D00398C117490F0918C910491CCFB2C2
:101CA00005E00398C117490F091849050F0E02985E
:101CB00007700298401C02902888401C28803146FA
:101CC000039A029800F0E2FC00900098002804D0EB
:101CD000009800F01BFF019008E02888C0192880B8
:101CE00004E00320019001E003200190019805B079
:101CF000F0BDFEB504460D46002001902888052859
:101D000039D160780602A0780643701C86B2E0786C
:101D100007022779012F2BDB7D2F29DC029400207D
:101D200028800320029C2070029C601C029028885E
:101D3000401C28807806000E029908700298401C0A
:101D400002902888401C28803A4631460023029899
:101D500000F044FD00900098002804D0009800F0A6
:101D6000D5FE019009E0288879004018288004E019
:101D70000320019001E0032001900198FEBDFEB513
:101D800004460D46002001902888052839D1607846
:101D90000602A0780643701C86B2E078070220791C
:101DA0000743012F2ADB7D2F28DA029400202880A8
:101DB0000420029C2070029C601C02902888401C19
:101DC00028807806010E029801700298401C02904B
:101DD0002888401C28803A463146029800F05EFD73
:101DE00000900098002804D0009800F08FFE019029
:101DF00009E0288879004018288004E00320019039
:101E000001E0032001900198FEBDF0B587B00446C3
:101E10000D460020019028880A2868DB60780002BF
:101E20000690A0780699084306900698401C80B258
:101E30000690E07800020590207905990843059006
:101E4000607900020490A0790499084304900498F2
:101E5000401C80B20490E07900020390207A03993C
:101E600008430390607A0290059801283DDB0598AD
:101E70007D283ADC0398012837DB0398792834DC85
:101E800003984000029988422FD120460A3001234E
:101E9000039A049900F0A2FC0746002F1ED12646A3
:101EA0002880172030703446761C2888401C2880F3
:101EB00005984006000E3070761C2888401C28804B
:101EC00030460023059A069900F088FC0746002F4B
:101ED00004D128880599490040182880002F06D091
:101EE000384600F013FE019001E0032001900198B4
:101EF00007B0F0BD70B504460D4606480288064995
:101F0000601CFEF723F903480088401C288000204D
:101F100070BD000040000020B0040020FEB5044663
:101F20000D4600200090288805282BD160780602F5
:101F3000A0780643701C86B2207900281FD1E07873
:101F4000FF2802D0E078002819D100206B46587194
:101F5000E078FF2802D10120187102E000206B46D2
:101F600018710122314601A8134600F0E1FA074634
:101F7000002F09D0384600F0C9FD009004E003208E
:101F8000009001E0032000900098FEBDF8B50446E3
:101F90000D46002000902888052813D1607806029D
:101FA000A0780643701C86B201223146E01C13461D
:101FB00000F014FC0746002F06D0384600F0A6FDBE
:101FC000009001E0032000900098F8BDF0B585B0C6
:101FD00004460D4600200190288805283DDD6078E4
:101FE0000602A0780643701C86B2E07807022079CA
:101FF0000743607903907807400F08D03846F917F7
:10200000490FC919C910491CC9B2029106E03846E6
:10201000F917490FC9194905090E0291012F19DB5A
:102020007B200001874215DC03990298884211D178
:102030003A463146A01D012300F07AFA009000983C
:10204000002804D0009800F061FD019007E0052011
:10205000288004E00320019001E003200190019812
:1020600005B0F0BDFEB504460D460020019028885D
:10207000062829DB60780602A0780643701C86B229
:10208000E07807022079074360790290012F18DB7E
:10209000782F16DC7806000E0299884211D13A4654
:1020A0003146A01D012300F099FB00900098002804
:1020B00004D0009800F02AFD019007E00520288058
:1020C00004E00320019001E0032001900198FEBD8F
:1020D000FFB581B004460D4616460A9F00200090C9
:1020E000FF2D03D0002D01DBFE2D02DD022000902C
:1020F0003AE01F480570002C21D11E481C49C91D1B
:1021000008601D48091D08601C48083908601C4803
:102110000C3108600020091D08601A481A4908603F
:102120001A481B4908601B481B4908603B4631465A
:102130000F480078049A00F039F9009002E002207C
:10214000009000BF00BF009800280DD100F056FF9E
:10215000002802D10320009006E00548401C0470CE
:10216000012003498D390870009805B0F0BD0000CA
:10217000D1000020F5240000192500006D24000086
:1021800001240000E9300000E8000020BD3100001B
:10219000EC00002079310000F000002038B5002567
:1021A00081480078002801D0062038BD684600F03C
:1021B00013FF01287ED16B461B78FFF743FC050413
:1021C000058EF02EF100EBE0774A8A32911F081D50
:1021D000034614331B6898470546002D0FD17248FB
:1021E0008830007870498D310978884204D06E4873
:1021F00088300078FF2802D1022000F007FF082D68
:102200000AD169488830007867498D310978884259
:1022100002D1042000F0FAFEC2E063488430006876
:1022200000786149893108700120C91C08700024B8
:102230001CE0E0005C49091D085C002800D117E0A3
:10224000E0005949091D085C8531097888420CD1A4
:10225000E0005549091D401886314268881F006812
:10226000904751498C31087002E0641C102CE0DB6F
:1022700000BF4D4888300078FF282DD04A488C3068
:10228000007800281ED0002047498A310880481E67
:1022900001788020014344488A3002880088401C2D
:1022A000414B8A331880981F00688154981C02782B
:1022B000801E00E075E001880088401C1880981F8F
:1022C0000068425438488A300288801F016809300B
:1022D000007800F0ABFBC5B262E0334884300068A0
:1022E00000783149893108700120C91C0870002428
:1022F0001CE0E0002C49091D085C002800D117E013
:10230000E0002949091D085C8531097888420CD113
:10231000E0002549091D401886314268881F006881
:10232000904721498C31087002E0641C102CE0DBDE
:1023300000BF1D4888300078FF282ED01A488C3006
:10234000007800281DD0002017498A310880481ED7
:1023500001788020014314488A3002880088401C9C
:10236000114B8A331880981F00688154981C01789B
:10237000801E02880088401C1880981F00688154C5
:102380000EE009488A300288801F01680930007811
:10239000054B90331B689847054601E0FFE700BFF7
:1023A00000BF002001E7000044000020F8B50C4603
:1023B00015461E460027FEF79FFB33460822294696
:1023C000204600F035FE012801D0032712E04B2003
:1023D0000002854202D92320009004E069000748EA
:1023E000FDF79EFE0090009988B200F05DFE012886
:1023F00000D00327FEF782FB3846F8BDA07F170008
:10240000F8B504460D4616460027FEF775FB15483D
:102410000088042811DB13480188134800F0F8FCF9
:1024200000280AD11048007820700E480088C01E8D
:1024300030800D48401C28600FE00A4800880428BE
:102440000ADB094800792070064800883080064879
:10245000801D2860082700E00527FEF74FFB38465F
:10246000F8BD00003E000020B0030020F8B504468F
:102470000D46164600200090FEF73EFB1B480078F4
:1024800001282DD1681E1949C91C08600120091DA9
:102490000880081F006804700846008880190880BA
:1024A00008460188001F006800F0B2FC07460F4A8A
:1024B000D21D1088421C0D4BDB1D1A800C4A17548C
:1024C00039121A461088421C1A80094A11540120F8
:1024D0001946083908700121002000F0B3FC01E022
:1024E00005200090FEF70AFB0098F8BD350000209B
:1024F000B003002010B5FEF7FFFA00200549087070
:102500000021012000F09EFC00F0D4FCFEF7F6FA5A
:1025100010BD00003500002010B5FEF7EDFA0021D7
:10252000084600F08FFC00F0AFFCFEF7E7FA10BDA4
:10253000FFB589B004460D46164600200890304687
:10254000F117490F8919C910491C069100F042FD85
:1025500000280FD000F05AFC48494018059001208F
:1025600004900820039046480088C0B202900120E1
:102570000C9009E043480590012004900820039046
:1025800041480088C0B202900498854271DBA819C6
:10259000039A0499891888426BDC0299681AC1175A
:1025A000490F0918CF100299681AC117490F091865
:1025B000C910C900411A07910C98002802D00128BF
:1025C00055D126E00EE007998BB239467F1C059A5B
:1025D00088180822194600F029FE2070641C06980D
:1025E000401E069006980028EDDC641E3046F11768
:1025F000490F8919C910C900711A8EB220780821B3
:10260000891B8840207020780821891B0841207090
:102610002DE010E02378641C079880B200903846C3
:102620007F1C0599401808220190009900F015FEC2
:102630000698401E069006980128EBDC3046F117FC
:10264000490F8919C910C900711A8EB2002E0DD018
:102650002378641CF2B2079880B2009038467F1C41
:10266000059940180190009900F0F7FD00BF02E0C5
:10267000FFE70120089008980DB0F0BDA0010020F0
:102680001A0000203100002012000020F0B589B0AF
:1026900004460F461546002008902846E917490FC2
:1026A0004919C910491C059100F094FC00280CD070
:1026B00000F0ACFB45494618012004900820039027
:1026C00043480088C0B2029008E0424E01200490C6
:1026D0000820039040480088C0B2029004988742C6
:1026E0006EDB7819039A04998918884268DC02998C
:1026F000781AC117490F0918C91007910299781A59
:10270000C117490F0918C910C900411A069100F0F4
:1027100061FC00282DD010E02378641C069880B25C
:1027200000900798411C8019082207910190009998
:1027300000F093FD0598401E059005980128EBDCFC
:102740002846E917490F4919C910C900691A8DB2FD
:10275000002D37D02378641CEAB2069880B200902E
:102760000798411C801907910190009900F075FDB0
:1027700028E00EE006998BB207994A1C8819079247
:102780000822194600F052FD2070641C0598401E76
:10279000059005980028EDDC641E2846E917490FCE
:1027A0004919C910C900691A8DB220780821491B3E
:1027B0008840207020780821491B0841207001E0E2
:1027C00001200890089809B0F0BD00009001002099
:1027D000180000203000002010000020FFB583B05A
:1027E00004460020029000F0F5FB00280ED000F017
:1027F0000DFB0001254FC519012608200190244832
:102800000088C0B200900120069007E0214D01260B
:102810001820019020480088C0B20090B14230DBFF
:102820008818019FF719B8422BDC00980B1A0698FC
:10283000002802D0012823D10FE00BE05800285ACD
:1028400000122070641C5800285A2070641C5B1C05
:10285000501E82B2002AF1DC12E00EE02078641CE7
:1028600000025F00E8532078641C5F00EF5B384390
:102870005F00E8535B1C501E82B2002AEEDC00BFF2
:1028800001E001200290029807B0F0BDB0020020E4
:102890001E0000206001002016000020FEB5034647
:1028A0000020029000F096FB00280CD000F0AEFA59
:1028B0000001204FC5190126082001901E480088FC
:1028C000C0B2009007E01D4D0126082001901C4871
:1028D0000088C0B20090B14227DB8818019FF71929
:1028E000B84222DC00980C1A1CE000F073FB0028B0
:1028F0000CD018785B1C00026700E85318785B1C4A
:102900006700EF5B38436700E85308E06000285A2F
:10291000001218705B1C6000285A18705B1C641C45
:10292000501E82B2002AE0DC01E0012002900298F1
:10293000FEBD0000B00100201C000020500100205E
:102940001400002010B50322B0211148FEF736F91B
:10295000032202210F48FEF731F9032248210C48D7
:10296000FEF72CF90C48FEF7B1F800200B4948603F
:102970000B48FEF7ABF80021362000F07DF9044645
:10298000FEF756FB00218E2000F076F9652410BD7D
:1029900000400050004100501027000080420050CD
:1029A000400D030008B500BF06E059201D4908602E
:1029B00016200860882008601A4800680128F4D1B1
:1029C00000BFFEF763FBFEF731F9FEF70CF9FDF7E8
:1029D000F9FFFEF73FF914490870FFF7B3FF00F065
:1029E000BFF800BF00200F49086000BF00220E485A
:1029F0000092017810464B23DB01FFF769FBFFF7DC
:102A0000A7F80EE0FFF7CAFBFDF79EFFFEF70EF8F2
:102A1000FEF730F8FDF7A0FEFEF7FAFD0020FEF706
:102A2000A7FDEFE70001005000000020F8B50446C4
:102A30000D46164600200090FEF75EF8002E03D1EA
:102A4000FEF75CF80098F8BD2E480078012853D1B5
:102A50002D482C49C91C0860FF20096808705520C2
:102A60002849C91C0968487005202649C91C0968FD
:102A7000887000202349C91C0968C8702148C01CFF
:102A80000068047100201F49C91C096848710620AC
:102A90001C49C91D0880091F09681A4AD21D1288DD
:102AA000881832462946FDF751FB1648C01D00889C
:102AB00080191449C91D088008460188001F006854
:102AC000FEF7E6FF074639120E4AD21D1088421C57
:102AD0000C4BDB1D1A800C4A11541A461088421CFC
:102AE0001A80094A17540120194608390870012133
:102AF000002000F0A7F901E005200090FDF7FEFF9F
:102B00000098A0E735000020B0030020014600290E
:102B100004D0012904D0072906D103E0002005E0F4
:102B2000022003E0062001E0042000BF00BF704740
:102B300010B502480068804710BD0000F00000207A
:102B400010B502480068804710BD0000E800002072
:102B500010B502480068804710BD0000EC0000205E
:102B600010B500BF0021022000F086F804460121C4
:102B7000872000F081F80021072000F07DF804464E
:102B80000021022000F078F8044602218E2000F097
:102B900073F80321882000F06FF80021882000F0EE
:102BA0006BF80521872000F067F80021072000F06E
:102BB00063F804460221852000F05EF810BD000095
:102BC00070B504461948C06800282DD1FEF7BCF93D
:102BD0000646FEF753FF00214B2000F04DF8054656
:102BE00000201249C86108617F2000F021F800260A
:102BF00005E0002000F01CF8A055701CC6B2AE42E3
:102C0000F7DB0120094908610121872000F034F831
:102C10000021032000F030F80021042000F02CF8FF
:102C2000FFF79EFF68B270BD0020FCE70042005035
:102C300000211CE08022104203D001220D4B5A617A
:102C400002E000220B4B5A614206100E0122094B92
:102C5000DA611A469269002A02D00122104301E08B
:102C6000FE2210400022034BDA614A1CD1B208292F
:102C7000E0DB70470042005010B502460020204CB7
:102C8000E0612061002312E08020024203D0012095
:102C90001B4C606102E00020194C60615006020E7E
:102CA0000120174CE0610020E061581CC3B2082BE2
:102CB000EADB00231CE08020014203D00120104CFD
:102CC000606102E000200E4C60614806010E0120A8
:102CD0000B4CE06120468069002802D001200143AE
:102CE00001E0FE2001400020054CE061581CC3B209
:102CF000082BE0DB0120024C2061E061084610BD9A
:102D000000420050F0B585B004460D460020029008
:102D1000012001900020009000BF04218520FFF7D2
:102D2000ABFF01218720FFF7A7FF00210720FFF756
:102D3000A3FF074600210220FFF79EFF074601215F
:102D40008E20FFF799FF03218820FFF795FF0021D0
:102D50008820FFF791FF4021B420FFF78DFF29461F
:102D6000BE20FFF789FF002605E0A15DFF20FFF7E9
:102D700083FF701CC6B2AE42F7DB09218720FFF744
:102D80007BFF1CE000210320FFF776FF0290042167
:102D90000298084002900298002801D0002001907B
:102DA000FF205F30FDF792FE0098401C80B200903B
:102DB000FF215F310098884201DB002001900198DB
:102DC0000128DFD0FF215F31009888420ADB012112
:102DD0008720FFF751FFFEF72BF9FFF7C1FE002018
:102DE00005B0F0BD00210320FFF746FF039000214E
:102DF0000420FFF741FF039001218720FFF73CFFEC
:102E0000FEF716F9FFF7ACFE0120E9E70020704756
:102E100070B50246FF23FF2408E01578521C654078
:102E20000648405D584004460548435D08464E1E2E
:102E3000B1B20028F1D11802204370BDAA320000BF
:102E4000AA330000002806D00E4A526801231A4314
:102E50000C4B5A6005E00B4A526852085200094B6D
:102E60005A60002906D0074A526802231A43054BCC
:102E70005A6005E0034A526802239A43014B5A60A4
:102E8000704700000000054000BF074800680121AE
:102E9000890788430449086000BF0020034908707F
:102EA0000349086070470000200001400400002032
:102EB0000800002010B501200749087000200749CC
:102EC00008600748FEF717FC0920FDF707FF0448D4
:102ED000FEF794FC10BD0000040000200800002054
:102EE0002000014001460248006808700120704738
:102EF00000001540F8B505460C4616461F46114819
:102F0000FEF704F90022032109060F48FDF7D0FC63
:102F10000D48FDF741FC21460C48FEF719FDFDF771
:102F2000EBFD0A4840680121084308494860022136
:102F30000D20FDF75FFF0D20FDF7DAFEFDF7DEFD4A
:102F40000120F8BD11000004113D8027000015404C
:102F50000020024908700249086070470D010020F6
:102F60001001002001200349087000200249086078
:102F7000704700000D0100201001002010B504462C
:102F800011480480114A0121C9061148FEF7FCFBD3
:102F900000BF0F4800680121490708430C49086039
:102FA00000BF04210A20FDF725FF0A20FDF7A0FE3F
:102FB00000BF0748006801218907084304490860E9
:102FC00000BF012010BD000020010020204E0000A5
:102FD000000011400020704701460020064A127888
:102FE000002A07D0044A521E12780A700022024BAF
:102FF0001A700120704700000200002000200249E2
:1030000008700120704700000200002001460120E6
:10301000024A1070501E017001207047020000200B
:103020000146024800680870012070470000054012
:10303000F8B505460C4616461F461348FEF766F8D7
:103040000022032109061148FDF732FC0F48FDF765
:10305000A3FB21460E48FEF77BFCFDF74DFD0C4817
:103060004068012108430A49486003210C20FDF70C
:1030700049FE00BF0C21012088400649086000BFBE
:10308000FDF73CFD0120F8BD10000004103D802735
:103090000000054000E100E0014602480160012017
:1030A000704700000000054010B504460B4804803E
:1030B0000B4A0121C9060B48FEF766FB0948FEF7DB
:1030C0001AFB03210920FDF759FE0920FDF706FE32
:1030D0000448FEF793FB012010BD00000C00002007
:1030E000204E00002000014038B500246846FFF75C
:1030F00097FF1F480078002806D001280AD0022830
:103100001BD0032830D102E0FFF7D4FE2CE0FFF7FC
:10311000D1FE29E000201649093108806B461A7853
:103120000888411C124B0933198012490A540220A5
:103130000F490870FFF7BEFE16E00D480930008801
:10314000FF280BDC6B461A78094909310888411CB5
:10315000074B0933198007490A5402E00320044948
:103160000870FFF7A7FE00BF00BF204638BD000073
:1031700035000020B003002010B500240E48007870
:10318000002804D0022807D003280BD109E0002032
:10319000FFF73CFF044606E00120FFF737FF044637
:1031A00001E000E000BF00BFFFF76EFE0120024912
:1031B0000870204610BD00003500002010B5002426
:1031C00019480078002802D0012829D104E0002104
:1031D0000120FFF737FE23E013480830008800285D
:1031E00012D01149091D09680878FFF755FF0E48EC
:1031F000001D0068401C0C49091D0860081D00885E
:10320000401E091D08800AE00320FFF7FFFE044668
:1032100000210120FFF716FE00200349087000BFBF
:1032200000BF204610BD000034000020F0B503466A
:10323000CE08F000081A87B201209040401E85B2E7
:103240009C5D701C185C000204432046384184B227
:10325000204628400446E0B2F0BDFFB582B000939E
:10326000CD08EE008E1BB6B20196009B1F46019E54
:10327000B740BEB200960127049EB7407E1EB4B28E
:10328000EE008E1B2746B740BCB2425D6E1C865DC9
:10329000360232431646A643009F3E43324642550D
:1032A00016126F1CC65506B0F0BD00C1814001C0AA
:1032B000804101C0804100C1814001C0804100C106
:1032C000814000C1814001C0804101C0804100C1F6
:1032D000814000C1814001C0804100C1814001C0E6
:1032E000804101C0804100C1814001C0804100C1D6
:1032F000814000C1814001C0804100C1814001C0C6
:10330000804101C0804100C1814000C1814001C0B5
:10331000804101C0804100C1814001C0804100C1A5
:10332000814000C1814001C0804101C0804100C195
:10333000814000C1814001C0804100C1814001C085
:10334000804101C0804100C1814000C1814001C075
:10335000804101C0804100C1814001C0804100C165
:10336000814000C1814001C0804100C1814001C055
:10337000804101C0804100C1814001C0804100C145
:10338000814000C1814001C0804101C0804100C135
:10339000814000C1814001C0804100C1814001C025
:1033A000804101C0804100C1814000C0C101C30310
:1033B00002C2C60607C705C5C404CC0C0DCD0FCF8D
:1033C000CE0E0ACACB0BC90908C8D81819D91BDBFD
:1033D000DA1A1EDEDF1FDD1D1CDC14D4D515D7174D
:1033E00016D6D21213D311D1D010F03031F133F3FD
:1033F000F23236F6F737F53534F43CFCFD3DFF3F4D
:103400003EFEFA3A3BFB39F9F83828E8E929EB2B7C
:103410002AEAEE2E2FEF2DEDEC2CE42425E527E70C
:10342000E62622E2E323E12120E0A06061A163A37C
:10343000A26266A6A767A56564A46CACAD6DAF6F0C
:103440006EAEAA6A6BAB69A9A86878B8B979BB7B7C
:103450007ABABE7E7FBF7DBDBC7CB47475B577B7CC
:10346000B67672B2B373B17170B0509091519353FC
:10347000529296565797559594549C5C5D9D5F9FCC
:103480009E5E5A9A9B5B99595898884849894B8BFC
:103490008A4A4E8E8F4F8D4D4C8C4484854587478C
:1034A00046868242438341818040000021104220B1
:1034B00063308440A550C660E770088129914AA115
:1034C0006BB18CC1ADD1CEE1EFF13112100273328C
:1034D0005222B5529442F772D662399318837BB365
:1034E0005AA3BDD39CC3FFF3DEE36224433420041C
:1034F0000114E664C774A44485546AA54BB52885B5
:103500000995EEE5CFF5ACC58DD55336722611166B
:103510003006D776F6669556B4465BB77AA7199704
:103520003887DFF7FEE79DD7BCC7C448E5588668F3
:10353000A7784008611802282338CCC9EDD98EE954
:10354000AFF9488969990AA92BB9F55AD44AB77ACB
:10355000966A711A500A333A122AFDDBDCCBBFFBA4
:103560009EEB799B588B3BBB1AABA66C877CE44CDB
:10357000C55C222C033C600C411CAEED8FFDECCDF4
:10358000CDDD2AAD0BBD688D499D977EB66ED55EAB
:10359000F44E133E322E511E700E9FFFBEEFDDDF44
:1035A000FCCF1BBF3AAF599F788F8891A981CAB1D0
:1035B000EBA10CD12DC14EF16FE18010A100C23002
:1035C000E3200450254046706760B9839893FBA3BD
:1035D000DAB33DC31CD37FE35EF3B1029012F32252
:1035E000D2323542145277625672EAB5CBA5A8950D
:1035F00089856EF54FE52CD50DC5E234C324A014A2
:1036000081046674476424540544DBA7FAB799879C
:10361000B8975FE77EF71DC73CD7D326F2369106F1
:10362000B01657667676154634564CD96DC90EF9E4
:103630002FE9C899E9898AB9ABA944586548067841
:103640002768C018E1088238A3287DCB5CDB3FEBFC
:103650001EFBF98BD89BBBAB9ABB754A545A376A91
:10366000167AF10AD01AB32A923A2EFD0FED6CDDCC
:103670004DCDAABD8BADE89DC98D267C076C645CE1
:10368000454CA23C832CE01CC10C1FEF3EFF5DCFDC
:103690007CDF9BAFBABFD98FF89F176E367E554E31
:1036A000745E932EB23ED10EF01E0000001BB700D8
:1036B000000000000000000000000000000000000A
:1036C000102700000000000000805101001BB7001F
:1036D000000000000000000000805101001BB70046
:1036E000000000000000000000805101001BB70036
:1036F000000000000000000000805101001BB70026
:103700000000000080F0FA02102700000000000016
:103710000000000000000000008051013C37000064
:103720000000002050010000C20400009437000097
:1037300050010020080700006E1A00000110DA0195
:103740000222301B2031041350011B20600401149D
:103750003202320423BD1A32114BF51E10237F1D95
:10376000320323F31C32101A653E3206238D1F32BA
:10377000171A0B28320123791B32051A1D18320F34
:103780001ACD0829541A3738015C5E80F0FA0232EB
:0437900008014800E4
:04000005000000D522
:00000001FF
